{
  "contractName": "GradeBook",
  "abi": [
    {
      "inputs": [],
      "stateMutability": "nonpayable",
      "type": "constructor"
    },
    {
      "inputs": [
        {
          "internalType": "uint256",
          "name": "",
          "type": "uint256"
        }
      ],
      "name": "grades",
      "outputs": [
        {
          "internalType": "string",
          "name": "studentName",
          "type": "string"
        },
        {
          "internalType": "string",
          "name": "subject",
          "type": "string"
        },
        {
          "internalType": "uint8",
          "name": "grade",
          "type": "uint8"
        }
      ],
      "stateMutability": "view",
      "type": "function"
    },
    {
      "inputs": [],
      "name": "owner",
      "outputs": [
        {
          "internalType": "address",
          "name": "",
          "type": "address"
        }
      ],
      "stateMutability": "view",
      "type": "function"
    },
    {
      "inputs": [
        {
          "internalType": "string",
          "name": "_studentName",
          "type": "string"
        },
        {
          "internalType": "string",
          "name": "_subject",
          "type": "string"
        },
        {
          "internalType": "uint8",
          "name": "_grade",
          "type": "uint8"
        }
      ],
      "name": "addGrade",
      "outputs": [],
      "stateMutability": "nonpayable",
      "type": "function"
    },
    {
      "inputs": [
        {
          "internalType": "string",
          "name": "_studentName",
          "type": "string"
        },
        {
          "internalType": "string",
          "name": "_subject",
          "type": "string"
        },
        {
          "internalType": "uint8",
          "name": "_grade",
          "type": "uint8"
        }
      ],
      "name": "updateGrade",
      "outputs": [],
      "stateMutability": "nonpayable",
      "type": "function"
    },
    {
      "inputs": [
        {
          "internalType": "string",
          "name": "_studentName",
          "type": "string"
        },
        {
          "internalType": "string",
          "name": "_subject",
          "type": "string"
        }
      ],
      "name": "getGrade",
      "outputs": [
        {
          "internalType": "uint8",
          "name": "",
          "type": "uint8"
        }
      ],
      "stateMutability": "view",
      "type": "function"
    },
    {
      "inputs": [
        {
          "internalType": "string",
          "name": "_subject",
          "type": "string"
        }
      ],
      "name": "averageGrade",
      "outputs": [
        {
          "internalType": "uint8",
          "name": "",
          "type": "uint8"
        }
      ],
      "stateMutability": "view",
      "type": "function"
    }
  ],
  "bytecode": "0x608060405234801561001057600080fd5b50336000806101000a81548173ffffffffffffffffffffffffffffffffffffffff021916908373ffffffffffffffffffffffffffffffffffffffff1602179055506112e3806100606000396000f3fe608060405234801561001057600080fd5b50600436106100625760003560e01c80634b22fc62146100675780634cae0eb414610099578063525778a8146100c957806378abc2c8146100e55780638da5cb5b14610101578063ee43deb71461011f575b600080fd5b610081600480360381019061007c9190610c69565b61014f565b60405161009093929190610ec8565b60405180910390f35b6100b360048036038101906100ae9190610b7e565b6102a6565b6040516100c09190610f6d565b60405180910390f35b6100e360048036038101906100de9190610bea565b6104b0565b005b6100ff60048036038101906100fa9190610bea565b610711565b005b61010961084a565b6040516101169190610ead565b60405180910390f35b61013960048036038101906101349190610b3d565b61086e565b6040516101469190610f6d565b60405180910390f35b6001818154811061015f57600080fd5b906000526020600020906003020160009150905080600001805461018290611137565b80601f01602080910402602001604051908101604052809291908181526020018280546101ae90611137565b80156101fb5780601f106101d0576101008083540402835291602001916101fb565b820191906000526020600020905b8154815290600101906020018083116101de57829003601f168201915b50505050509080600101805461021090611137565b80601f016020809104026020016040519081016040528092919081815260200182805461023c90611137565b80156102895780601f1061025e57610100808354040283529160200191610289565b820191906000526020600020905b81548152906001019060200180831161026c57829003601f168201915b5050505050908060020160009054906101000a900460ff16905083565b600080600090505b60018054905081101561046e57836040516020016102cc9190610e7f565b604051602081830303815290604052805190602001206001828154811061031c577f4e487b7100000000000000000000000000000000000000000000000000000000600052603260045260246000fd5b906000526020600020906003020160000160405160200161033d9190610e96565b604051602081830303815290604052805190602001201480156103f557508260405160200161036c9190610e7f565b60405160208183030381529060405280519060200120600182815481106103bc577f4e487b7100000000000000000000000000000000000000000000000000000000600052603260045260246000fd5b90600052602060002090600302016001016040516020016103dd9190610e96565b60405160208183030381529060405280519060200120145b1561045b5760018181548110610434577f4e487b7100000000000000000000000000000000000000000000000000000000600052603260045260246000fd5b906000526020600020906003020160020160009054906101000a900460ff169150506104aa565b808061046690611169565b9150506102ae565b506040517f08c379a00000000000000000000000000000000000000000000000000000000081526004016104a190610f4d565b60405180910390fd5b92915050565b60008054906101000a900473ffffffffffffffffffffffffffffffffffffffff1673ffffffffffffffffffffffffffffffffffffffff163373ffffffffffffffffffffffffffffffffffffffff161461053e576040517f08c379a000000000000000000000000000000000000000000000000000000000815260040161053590610f0d565b60405180910390fd5b60005b60018054905081101561070a578360405160200161055f9190610e7f565b60405160208183030381529060405280519060200120600182815481106105af577f4e487b7100000000000000000000000000000000000000000000000000000000600052603260045260246000fd5b90600052602060002090600302016000016040516020016105d09190610e96565b604051602081830303815290604052805190602001201480156106885750826040516020016105ff9190610e7f565b604051602081830303815290604052805190602001206001828154811061064f577f4e487b7100000000000000000000000000000000000000000000000000000000600052603260045260246000fd5b90600052602060002090600302016001016040516020016106709190610e96565b60405160208183030381529060405280519060200120145b156106f75781600182815481106106c8577f4e487b7100000000000000000000000000000000000000000000000000000000600052603260045260246000fd5b906000526020600020906003020160020160006101000a81548160ff021916908360ff1602179055505061070c565b808061070290611169565b915050610541565b505b505050565b60008054906101000a900473ffffffffffffffffffffffffffffffffffffffff1673ffffffffffffffffffffffffffffffffffffffff163373ffffffffffffffffffffffffffffffffffffffff161461079f576040517f08c379a000000000000000000000000000000000000000000000000000000000815260040161079690610f0d565b60405180910390fd5b600160405180606001604052808581526020018481526020018360ff1681525090806001815401808255809150506001900390600052602060002090600302016000909190919091506000820151816000019080519060200190610804929190610a08565b506020820151816001019080519060200190610821929190610a08565b5060408201518160020160006101000a81548160ff021916908360ff1602179055505050505050565b60008054906101000a900473ffffffffffffffffffffffffffffffffffffffff1681565b600080600090506000805b6001805490508110156109af57846040516020016108979190610e7f565b60405160208183030381529060405280519060200120600182815481106108e7577f4e487b7100000000000000000000000000000000000000000000000000000000600052603260045260246000fd5b90600052602060002090600302016001016040516020016109089190610e96565b60405160208183030381529060405280519060200120141561099c576001818154811061095e577f4e487b7100000000000000000000000000000000000000000000000000000000600052603260045260246000fd5b906000526020600020906003020160020160009054906101000a900460ff1660ff168361098b9190611025565b9250818061099890611169565b9250505b80806109a790611169565b915050610879565b50600081116109f3576040517f08c379a00000000000000000000000000000000000000000000000000000000081526004016109ea90610f2d565b60405180910390fd5b80826109ff919061107b565b92505050919050565b828054610a1490611137565b90600052602060002090601f016020900481019282610a365760008555610a7d565b82601f10610a4f57805160ff1916838001178555610a7d565b82800160010185558215610a7d579182015b82811115610a7c578251825591602001919060010190610a61565b5b509050610a8a9190610a8e565b5090565b5b80821115610aa7576000816000905550600101610a8f565b5090565b6000610abe610ab984610fb9565b610f88565b905082815260208101848484011115610ad657600080fd5b610ae18482856110f5565b509392505050565b600082601f830112610afa57600080fd5b8135610b0a848260208601610aab565b91505092915050565b600081359050610b228161127f565b92915050565b600081359050610b3781611296565b92915050565b600060208284031215610b4f57600080fd5b600082013567ffffffffffffffff811115610b6957600080fd5b610b7584828501610ae9565b91505092915050565b60008060408385031215610b9157600080fd5b600083013567ffffffffffffffff811115610bab57600080fd5b610bb785828601610ae9565b925050602083013567ffffffffffffffff811115610bd457600080fd5b610be085828601610ae9565b9150509250929050565b600080600060608486031215610bff57600080fd5b600084013567ffffffffffffffff811115610c1957600080fd5b610c2586828701610ae9565b935050602084013567ffffffffffffffff811115610c4257600080fd5b610c4e86828701610ae9565b9250506040610c5f86828701610b28565b9150509250925092565b600060208284031215610c7b57600080fd5b6000610c8984828501610b13565b91505092915050565b610c9b816110ac565b82525050565b6000610cac82610ffe565b610cb68185611009565b9350610cc6818560208601611104565b610ccf8161126e565b840191505092915050565b6000610ce582610ffe565b610cef818561101a565b9350610cff818560208601611104565b80840191505092915050565b60008154610d1881611137565b610d22818661101a565b94506001821660008114610d3d5760018114610d4e57610d81565b60ff19831686528186019350610d81565b610d5785610fe9565b60005b83811015610d7957815481890152600182019150602081019050610d5a565b838801955050505b50505092915050565b6000610d97602583611009565b91507f4f6e6c7920746865206f776e65722063616e2063616c6c20746869732066756e60008301527f6374696f6e0000000000000000000000000000000000000000000000000000006020830152604082019050919050565b6000610dfd602083611009565b91507f4e6f2067726164657320666f756e6420666f722074686973207375626a6563746000830152602082019050919050565b6000610e3d600f83611009565b91507f4772616465206e6f7420666f756e6400000000000000000000000000000000006000830152602082019050919050565b610e79816110e8565b82525050565b6000610e8b8284610cda565b915081905092915050565b6000610ea28284610d0b565b915081905092915050565b6000602082019050610ec26000830184610c92565b92915050565b60006060820190508181036000830152610ee28186610ca1565b90508181036020830152610ef68185610ca1565b9050610f056040830184610e70565b949350505050565b60006020820190508181036000830152610f2681610d8a565b9050919050565b60006020820190508181036000830152610f4681610df0565b9050919050565b60006020820190508181036000830152610f6681610e30565b9050919050565b6000602082019050610f826000830184610e70565b92915050565b6000604051905081810181811067ffffffffffffffff82111715610faf57610fae61123f565b5b8060405250919050565b600067ffffffffffffffff821115610fd457610fd361123f565b5b601f19601f8301169050602081019050919050565b60008190508160005260206000209050919050565b600081519050919050565b600082825260208201905092915050565b600081905092915050565b6000611030826110de565b915061103b836110de565b9250827fffffffffffffffffffffffffffffffffffffffffffffffffffffffffffffffff038211156110705761106f6111b2565b5b828201905092915050565b6000611086826110de565b9150611091836110de565b9250826110a1576110a06111e1565b5b828204905092915050565b60006110b7826110be565b9050919050565b600073ffffffffffffffffffffffffffffffffffffffff82169050919050565b6000819050919050565b600060ff82169050919050565b82818337600083830152505050565b60005b83811015611122578082015181840152602081019050611107565b83811115611131576000848401525b50505050565b6000600282049050600182168061114f57607f821691505b6020821081141561116357611162611210565b5b50919050565b6000611174826110de565b91507fffffffffffffffffffffffffffffffffffffffffffffffffffffffffffffffff8214156111a7576111a66111b2565b5b600182019050919050565b7f4e487b7100000000000000000000000000000000000000000000000000000000600052601160045260246000fd5b7f4e487b7100000000000000000000000000000000000000000000000000000000600052601260045260246000fd5b7f4e487b7100000000000000000000000000000000000000000000000000000000600052602260045260246000fd5b7f4e487b7100000000000000000000000000000000000000000000000000000000600052604160045260246000fd5b6000601f19601f8301169050919050565b611288816110de565b811461129357600080fd5b50565b61129f816110e8565b81146112aa57600080fd5b5056fea2646970667358221220eee97a084bf87865c5e8a212cca3240494d087d146f6fc6e88cb4f228ba1274464736f6c63430008000033",
  "immutableReferences": {},
  "source": "// SPDX-License-Identifier: MIT\r\npragma solidity ^0.8.0;\r\n\r\ncontract GradeBook {\r\n    \r\n    address public owner;\r\n\r\n    \r\n    struct Grade {\r\n        string studentName;\r\n        string subject;\r\n        uint8 grade;\r\n    }\r\n\r\n    \r\n    Grade[] public grades;\r\n\r\n   \r\n    modifier onlyOwner() {\r\n        require(msg.sender == owner, \"Only the owner can call this function\");\r\n        _;\r\n    }\r\n\r\n    \r\n    constructor() {\r\n        owner = msg.sender;\r\n    }\r\n\r\n    \r\n    function addGrade(string memory _studentName, string memory _subject, uint8 _grade) public onlyOwner {\r\n        grades.push(Grade(_studentName, _subject, _grade));\r\n    }\r\n\r\n    \r\n    function updateGrade(string memory _studentName, string memory _subject, uint8 _grade) public onlyOwner {\r\n        for (uint i = 0; i < grades.length; i++) {\r\n            if (keccak256(abi.encodePacked(grades[i].studentName)) == keccak256(abi.encodePacked(_studentName)) &&\r\n                keccak256(abi.encodePacked(grades[i].subject)) == keccak256(abi.encodePacked(_subject))) {\r\n                grades[i].grade = _grade;\r\n                return;\r\n            }\r\n        }\r\n    }\r\n\r\n   \r\n    function getGrade(string memory _studentName, string memory _subject) public view returns (uint8) {\r\n        for (uint i = 0; i < grades.length; i++) {\r\n            if (keccak256(abi.encodePacked(grades[i].studentName)) == keccak256(abi.encodePacked(_studentName)) &&\r\n                keccak256(abi.encodePacked(grades[i].subject)) == keccak256(abi.encodePacked(_subject))) {\r\n                return grades[i].grade;\r\n            }\r\n        }\r\n        revert(\"Grade not found\");\r\n    }\r\n\r\n   \r\n    function averageGrade(string memory _subject) public view returns (uint8) {\r\n        uint total = 0;\r\n        uint count = 0;\r\n        for (uint i = 0; i < grades.length; i++) {\r\n            if (keccak256(abi.encodePacked(grades[i].subject)) == keccak256(abi.encodePacked(_subject))) {\r\n                total += grades[i].grade;\r\n                count++;\r\n            }\r\n        }\r\n        require(count > 0, \"No grades found for this subject\");\r\n        return uint8(total / count);\r\n    }\r\n}\r\n",
  "sourcePath": "C:\\Users\\rohil\\Desktop\\solidity stuff\\GradeBook\\contracts\\GradeBook.sol",
  "compiler": {
    "name": "solc",
    "version": "0.8.0+commit.c7dfd78e.Emscripten.clang"
  },
  "schemaVersion": "3.4.16",
  "updatedAt": "2024-07-03T12:33:57.301Z",
  "devdoc": {
    "kind": "dev",
    "methods": {},
    "version": 1
  },
  "userdoc": {
    "kind": "user",
    "methods": {},
    "version": 1
  }
}